{
  "_format": "hh-sol-artifact-1",
  "contractName": "BinaryOptionMarket",
  "sourceName": "contracts/BinaryOptionMarket.sol",
  "abi": [
    {
      "inputs": [
        {
          "internalType": "address",
          "name": "_oracleAddress",
          "type": "address"
        }
      ],
      "stateMutability": "nonpayable",
      "type": "constructor"
    },
    {
      "inputs": [],
      "name": "getCurrentPrice",
      "outputs": [
        {
          "internalType": "uint256",
          "name": "",
          "type": "uint256"
        }
      ],
      "stateMutability": "view",
      "type": "function"
    },
    {
      "inputs": [],
      "name": "priceOracle",
      "outputs": [
        {
          "internalType": "contract PriceOracle",
          "name": "",
          "type": "address"
        }
      ],
      "stateMutability": "view",
      "type": "function"
    }
  ],
  "bytecode": "0x608060405234801561001057600080fd5b5060405161037c38038061037c8339818101604052810190610032919061008d565b806000806101000a81548173ffffffffffffffffffffffffffffffffffffffff021916908373ffffffffffffffffffffffffffffffffffffffff160217905550506100ff565b600081519050610087816100e8565b92915050565b60006020828403121561009f57600080fd5b60006100ad84828501610078565b91505092915050565b60006100c1826100c8565b9050919050565b600073ffffffffffffffffffffffffffffffffffffffff82169050919050565b6100f1816100b6565b81146100fc57600080fd5b50565b61026e8061010e6000396000f3fe608060405234801561001057600080fd5b50600436106100365760003560e01c80632630c12f1461003b578063eb91d37e14610059575b600080fd5b610043610077565b604051610050919061019d565b60405180910390f35b61006161009b565b60405161006e91906101b8565b60405180910390f35b60008054906101000a900473ffffffffffffffffffffffffffffffffffffffff1681565b60008060009054906101000a900473ffffffffffffffffffffffffffffffffffffffff1673ffffffffffffffffffffffffffffffffffffffff1663a035b1fe6040518163ffffffff1660e01b815260040160206040518083038186803b15801561010457600080fd5b505afa158015610118573d6000803e3d6000fd5b505050506040513d601f19601f8201168201806040525081019061013c9190610156565b905090565b60008151905061015081610221565b92915050565b60006020828403121561016857600080fd5b600061017684828501610141565b91505092915050565b610188816101fd565b82525050565b610197816101f3565b82525050565b60006020820190506101b2600083018461017f565b92915050565b60006020820190506101cd600083018461018e565b92915050565b600073ffffffffffffffffffffffffffffffffffffffff82169050919050565b6000819050919050565b60006102088261020f565b9050919050565b600061021a826101d3565b9050919050565b61022a816101f3565b811461023557600080fd5b5056fea2646970667358221220a0d1b9cb8f464ed0f18c3409f5b114d133ea297ad624c1ec5151869da20f243664736f6c63430008000033",
  "linkReferences": {},
  "deployedLinkReferences": {}
}