{
  "_format": "hh-sol-artifact-1",
  "contractName": "PriceOracle",
  "sourceName": "contracts/PriceOracle.sol",
  "abi": [
    {
      "inputs": [],
      "stateMutability": "nonpayable",
      "type": "constructor"
    },
    {
      "anonymous": false,
      "inputs": [
        {
          "indexed": false,
          "internalType": "uint256",
          "name": "newPrice",
          "type": "uint256"
        }
      ],
      "name": "PriceUpdated",
      "type": "event"
    },
    {
      "inputs": [],
      "name": "owner",
      "outputs": [
        {
          "internalType": "address",
          "name": "",
          "type": "address"
        }
      ],
      "stateMutability": "view",
      "type": "function"
    },
    {
      "inputs": [],
      "name": "price",
      "outputs": [
        {
          "internalType": "uint256",
          "name": "",
          "type": "uint256"
        }
      ],
      "stateMutability": "view",
      "type": "function"
    },
    {
      "inputs": [
        {
          "internalType": "uint256",
          "name": "_price",
          "type": "uint256"
        }
      ],
      "name": "updatePrice",
      "outputs": [],
      "stateMutability": "nonpayable",
      "type": "function"
    }
  ],
  "bytecode": "0x608060405234801561001057600080fd5b5033600160006101000a81548173ffffffffffffffffffffffffffffffffffffffff021916908373ffffffffffffffffffffffffffffffffffffffff160217905550610329806100616000396000f3fe608060405234801561001057600080fd5b50600436106100415760003560e01c80638d6cc56d146100465780638da5cb5b14610062578063a035b1fe14610080575b600080fd5b610060600480360381019061005b91906101b2565b61009e565b005b61006a610171565b6040516100779190610239565b60405180910390f35b610088610197565b6040516100959190610274565b60405180910390f35b600160009054906101000a900473ffffffffffffffffffffffffffffffffffffffff1673ffffffffffffffffffffffffffffffffffffffff163373ffffffffffffffffffffffffffffffffffffffff161461012e576040517f08c379a000000000000000000000000000000000000000000000000000000000815260040161012590610254565b60405180910390fd5b806000819055507f66cbca4f3c64fecf1dcb9ce094abcf7f68c3450a1d4e3a8e917dd621edb4ebe06000546040516101669190610274565b60405180910390a150565b600160009054906101000a900473ffffffffffffffffffffffffffffffffffffffff1681565b60005481565b6000813590506101ac816102dc565b92915050565b6000602082840312156101c457600080fd5b60006101d28482850161019d565b91505092915050565b6101e4816102a0565b82525050565b60006101f7601b8361028f565b91507f4f6e6c79206f776e65722063616e2075706461746520707269636500000000006000830152602082019050919050565b610233816102d2565b82525050565b600060208201905061024e60008301846101db565b92915050565b6000602082019050818103600083015261026d816101ea565b9050919050565b6000602082019050610289600083018461022a565b92915050565b600082825260208201905092915050565b60006102ab826102b2565b9050919050565b600073ffffffffffffffffffffffffffffffffffffffff82169050919050565b6000819050919050565b6102e5816102d2565b81146102f057600080fd5b5056fea26469706673582212206a4ce1f4072d9ec5742129c812b4ee2661b75ff9e2fd18150407f94e73025bd164736f6c63430008000033",
  "linkReferences": {},
  "deployedLinkReferences": {}
}